:020000022000DC
:10700000000002209D050400DD050400DF050400EA
:10701000E1050400E3050400E505040000000000AC
:10702000000000000000000000000000190504003E
:10703000E90504000000000039050400ED05040026
:10704000E1070400EF050400EF050400092903002F
:10705000EF050400EF05040081DF0300EF050400E5
:10706000EF050400058A0200A58A0200EF0504006E
:10707000EF050400EF050400EF050400EF05040030
:10708000EF05040071020400EF050400EF050400A1
:10709000EF050400EF0504009D1C0300EF0504004C
:1070A000EF050400EF050400458B0200E58B0200AC
:1070B000EF050400EF0504000000000000000000E0
:1070C000EF050400EF050400EF050400F50C0400D3
:1070D000EF050400EF050400EF05040009B5020008
:1070E000EF050400000000000000000000000000A8
:1070F00000000000EF050400000000006D0D04001A
:10710000000000000000000000000000000000007F
:10711000000000000000000000000000000000006F
:10712000000000000000000000000000000000005F
:10713000000000000000000000000000000000004F
:10714000000000000000000000000000000000003F
:10715000000000000000000000000000000000002F
:10716000000000000000000000000000000000001F
:10717000000000000000000000000000000000000F
:1071800000000000000000000000000000000000FF
:1071900000000000000000000000000000000000EF
:1071A00000000000000000000000000000000000DF
:1071B00000000000000000000000000000000000CF
:1071C00000000000000000000000000000000000BF
:1071D00000000000000000000000000000000000AF
:1071E000000000000000000000000000000000009F
:1071F000000000000000000000000000000000008F
:10720000F1EE103A43F08073E1EE103A704700BFA0
:1072100010B5054C237833B9044B13B10448AFF3D0
:1072200000800123237010BDD46400200000000002
:10723000AC78040008B5034B1BB103490348AFF316
:10724000008008BD00000000D8640020AC78040075
:10725000154B002B08BF134B9D46A3F5803A002128
:107260008B460F461348144A121A1BF00DF90F4BA8
:10727000002B00D098470E4B002B00D098470020E1
:10728000002104000D000D48002802D00C48AFF387
:1072900000801BF08FF82000290019F0D7F91BF0AF
:1072A00063F800BF0000080000000220000000009A
:1072B00000000000D464002024A900200000000089
:1072C0000000000030B401600022BFF35B8F426019
:1072D000BFF35B8F01688260FF254FF0FF340582AA
:1072E000C2608274C1F8644530BC70470F294FF00A
:1072F000010228BF0F2102FA01F14B1E02689BB266
:107300000382C2F80835704703680182C3F8081584
:10731000704700BF0368072928BF07218174C3F89D
:107320000C157047F8B50C460368354ED3F8601558
:1073300016F824208A4223D0D3F864158A421FD03D
:10734000D3F868158A421BD0D3F86C158A4217D03F
:10735000D3F86025002A054614DBD3F86425002AFB
:1073600048DBD3F86825002A46DBD3F86C35002BC0
:1073700044DB0020F8BDD3F86C1500292EDA6ABB77
:107380000120F8BD00270121204619F0E3FF00216C
:1073900020461AF063F82B6856F82410D3F800251D
:1073A000FAB107F5AC7000220437C3F8002543F8A2
:1073B0002010012125F81720C3F80015D3F8602507
:1073C000D3F86415D2430029D3F868154FEAD27276
:1073D000A8BF01320029CEDBD3F86C2501209860CC
:1073E000F8BD07F5AC70043743F8201025F81720D6
:1073F0000120F8BD0127C6E70227C4E70327C2E73B
:10740000C4740400032931D830B463B30368043171
:10741000D3F8004520F811200CBB028AC3F80445BC
:10742000C3F80825827CC3F80C2508300225042106
:107430000122C3F81055C3F81445C3F82005C3F85A
:107440002415C3F82845C3F82C45C3F84045C3F8B4
:107450004445C3F84845C3F84C45C3F8002501200E
:1074600030BC9860704742F40042CFE7002070477C
:1074700030B4264D046815F82110D4F860558D42BB
:107480000ED0D4F864558D423AD0D4F86855A9424C
:1074900038D0D4F86C558D4236D0002030BC7047BF
:1074A00000210BB942F40042D4F80035043120F831
:1074B00011200BBB028AC4F80435C4F80825827C6D
:1074C000C4F80C250830022504210122C4F8105507
:1074D000C4F81435C4F82005C4F82415C4F82835B8
:1074E000C4F82C35C4F84035C4F84435C4F84835E0
:1074F000C4F84C35C4F800250120A06030BC7047AA
:107500000121CEE70221CCE70321CAE7C4740400BD
:1075100009B90020704710B4BFF35B8F4368BFF315
:107520005B8F994200F1040416D0BFF35B8F436870
:10753000BFF35B8F83B90368D3F86025D3F8640584
:10754000D2430028D3F868054FEAD272A8BF0132AF
:10755000002805DBD3F86C3500205DF8044B70473C
:10756000D3F86C050028F7DA002AF5D1D3F80035F6
:10757000002BF1D1BFF35B8F54E8003F002B03D108
:1075800044E80012002AF7D1BFF35B8F0CBF012043
:107590000020E2E708B509490948FFF793FE0949C9
:1075A0000948FFF78FFE09490948FFF78BFEBDE840
:1075B000084008490848FFF785BE00BF00C00140E9
:1075C000F06400200010024004650020002002400A
:1075D0001865002000D002402C650020024B027884
:1075E000002143F82210704770650020014B12788B
:1075F0001A7070471C670020F8B50F2019F04CFF77
:107600001F4B204A204ED3E900451368E31AC82BCC
:1076100007DD1E490023012833600B602CD0146065
:10762000F8BD316802290DD0F9DC09B30129F6D182
:1076300018B93C2BC4BF02233360144B14600021E3
:107640001960F8BD114FDFF848E03968DFF844C031
:107650004EF82100481C3F284CF8213005DD002160
:107660000323396033601460F8BD38601460F8BDDE
:107670000128D4D1782BD2DD01233360CFE700BFBE
:1076800068650020707800206C7800204867002032
:10769000EC7600208078002010B5014688B00D4CB3
:1076A0000D480AF0F3FA002320226946CDE90033A1
:1076B000CDE90333CDE905330293079309F07EF852
:1076C0000649204616F096F86946204616F060F9FD
:1076D00008B010BD80790020BC86002088530400CB
:1076E00038B5084C0D462046074916F083F8294660
:1076F0002046102216F0AAFA20460449BDE8384078
:1077000016F046B98079002098530400B453040061
:1077100038B53B4C3B4D204616F01AF93A49204605
:1077200016F068F828681AF0D7F841EC100B2046DC
:10773000022116F08DF83549204616F029F9344912
:10774000204616F057F868681AF0A4F828A3D3E981
:1077500000231AF019F941EC100B2046022116F013
:1077600077F82C49204616F013F92B49204616F0DD
:1077700041F8A8681AF0B0F841EC100B204602213D
:1077800016F066F82549204616F002F924492046ED
:1077900016F030F8E8681AF07DF817A3D3E9002353
:1077A0001AF0F2F841EC100B2046022116F050F8C6
:1077B0001C49204616F0ECF81B49204616F01AF832
:1077C00028469FED1A0A0BF007FB10EE100A1AF07C
:1077D00083F841EC100B2046022116F039F82046C0
:1077E000134916F0D5F82046BDE8384016F0B0B879
:1077F0007B14AE47E17A843FFCA9F1D24D62503F41
:107800008079002088660020C4530400D45304000B
:10781000D8530400E4530400EC530400F85304006C
:10782000FC530400045404000C54040000507D4434
:1078300020540400B248B3492DE9F047D0E90023B1
:10784000B14C561C2DED028B43F1000725680B78D7
:107850006A1E83F00103C0E9006782B00B700C2A36
:1078600024D8DFE812F0310049003D0060007A00C2
:107870008600CA00E0000D009D00A700B2002800AD
:10788000A24AA3491368D1ED007A0133F1EE0C6AE4
:1078900007EE103A67EEA67AB8EE477A1360B4EEB8
:1078A000E77AF1EE10FA01DB0A23236002B0BDECA7
:1078B000028BBDE8F087974B1D682B7D102B00F0E5
:1078C000658200232360F1E7924B1E68337D102B05
:1078D00000F0F6818D4A0021022311602360E5E764
:1078E0008C4B1E68337D102B00F08781874A002166
:1078F000042311602360D9E7844A85491368D1EDD8
:10790000007ADFED856A013307EE103A67EEA67A5A
:10791000B8EE477A1360B4EEE77AF1EE10FAC5DB01
:1079200003232360C2E7794A79491368D1ED007ACD
:10793000DFED7A6A013307EE103A67EEA67AB8EE09
:10794000477A1360B4EEE77AF1EE10FAAEDB744AD0
:107950000021052311602360A8E76E4B1D682B7D75
:10796000102B00F0E780694A002106231160236094
:107970009CE7664A66491368D1ED007A013307EE49
:10798000103AF1EE0C6AB8EE477A67EEA67A136009
:10799000B4EEE77AF1EE10FA88DB0723236085E77F
:1079A0005F4A136801331F2B1360CCBF0B230523E1
:1079B00023607BE7574B1D682B7D102B3CD0534A2F
:1079C00000210C231160236070E7504A504913686E
:1079D000D1ED007A013307EE103AF1EE0C6AB8EE01
:1079E000477A67EEA67A1360B4EEE77AF1EE10FA02
:1079F000FFF65CAF0D23236058E7464B1D682B7DD7
:107A0000102B00F02982464A464B10681A683F49FD
:107A10000123834013424FF0000014BF08230923C1
:107A20000860236042E7394A39491368D1ED007A8A
:107A30000133F3EE056A2BE7D5ED007ABCEEE78A59
:107A400047F6FF72B8EE488A6A82F4EE487AF1EEA1
:107A500010FA40F0A0846A680092002319464FF49F
:107A6000803247F6FF7016F0CDFA6B68009300285D
:107A70004FF0000319464FF4803247F6FF70C0F212
:107A8000508416F0BFFA19F015FF274B002219F0A9
:107A9000C5FD1AF029FA1FFA80F8DFF894A02348F0
:107AA00057465346002653F8042BA968BFF35B8F53
:107AB0005268BFF35B8F914200F0DA830136042EE7
:107AC000F1D1DFF86C90002659F8043BAA68BFF3A7
:107AD0005B8F5B68BFF35B8F9A4200F09382013645
:107AE000042EF1D10026A9685AF8040BFFF710FD07
:107AF000002840F086850136042EF4D15FE700BFF0
:107B000068650020846500208C650020787800205E
:107B100014600020606500200000034300008242E2
:107B200088650020186000200000E03FC474040055
:107B300004600020D5ED007ABCEEE78A47F6FF72BC
:107B4000B8EE488A6A82F4EE487AF1EE10FA40F014
:107B50006D846A680092002319464FF4803247F61C
:107B6000FF7016F04FFA6B68009300284FF0000387
:107B700019464FF4803247F6FF70C0F2E08316F0EA
:107B800041FA19F097FEB14B002219F047FD1AF0A7
:107B9000ABF91FFA80F8DFF8BCA2AD485746534650
:107BA000002653F8042BA968BFF35B8F5268BFF31C
:107BB0005B8F914200F0C1820136042EF1D1DFF8D3
:107BC0009492002659F8043BAA68BFF35B8F5B6868
:107BD000BFF35B8F9A4200F09E810136042EF1D1F3
:107BE0000026A9685AF8040BFFF792FC002840F021
:107BF000E3840136042EF4D1B5E6D6ED007ABCEE6E
:107C0000E78A0021B8EE488A7182F4EE487AF1EEF4
:107C100010FA40F0D4837268009200231946184687
:107C20004FF4803216F0EEF97368009300284FF09D
:107C30000003194618464FF48032C0F2588316F0FC
:107C4000E1F919F037FE814B002219F0E7FC1AF038
:107C50004BF91FFA80F9DFF8FCA17D4857465346DF
:107C60004FF0000853F8042BB168BFF35B8F5268E4
:107C7000BFF35B8F914200F0018208F10108B8F177
:107C8000040FEFD1DFF8CC81002558F8043BB2682F
:107C9000BFF35B8F5B68BFF35B8F9A4200F0948108
:107CA0000135042DF1D10025B1685AF8040BFFF716
:107CB0002FFC002840F03D840135042DF4D115E659
:107CC000D6ED007ABCEEE78A47F6FF72B8EE488A36
:107CD0007282F4EE487AF1EE10FA40F09483726802
:107CE0000092002319464FF4803247F6FF7016F0D9
:107CF00089F97368009300284FF0000319464FF488
:107D0000803247F6FF70C0F2FF8216F07BF919F05F
:107D1000D1FD4E4B002219F081FC1AF0E5F81FFA54
:107D200080F9DFF830A14A48574653464FF0000823
:107D300053F8042BB168BFF35B8F5268BFF35B8FBE
:107D4000914200F0CA8108F10108B8F1040FEFD1A7
:107D5000DFF80081002558F8043BB268BFF35B8F61
:107D60005B68BFF35B8F9A4200F06A810135042D96
:107D7000F1D10025B1685AF8040BFFF7C9FB0028C0
:107D800040F08D830135042DF4D1A3E5D5ED007AC3
:107D9000BCEEE78A0021B8EE488A6982F4EE487AA0
:107DA000F1EE10FA40F0E5826A680092002319466D
:107DB00018464FF4803216F025F96B6800930028BE
:107DC0004FF00003194618464FF48032C0F2C482C7
:107DD00016F018F919F06EFD1C4B002219F01EFC6C
:107DE0001AF082F81FFA80F8DFF868A018485746A2
:107DF0005346002653F8042BA968BFF35B8F5268E3
:107E0000BFF35B8F914200F001820136042EF1D165
:107E1000DFF84090002659F8043BAA68BFF35B8F57
:107E20005B68BFF35B8F9A4200F0B0800136042E8E
:107E3000F1D10026A9685AF8040BFFF769FB002866
:107E400040F008830136042EF4D13AE50000E03F0B
:107E5000C474040004600020D5ED007ABCEEE78A0B
:107E60000021B8EE488A6982F4EE487AF1EE10FA01
:107E700040F0B7826A6800920023194618464FF412
:107E8000803216F0BFF86B68009300284FF00003B3
:107E9000194618464FF48032C0F21C8216F0B2F830
:107EA00019F008FDD64B002219F0B8FB1AF01CF8A7
:107EB0001FFA80F8DFF850A3D248574653460026F1
:107EC00053F8042BA968BFF35B8F5268BFF35B8F35
:107ED000914200F064810136042EF1D1DFF828933D
:107EE000002659F8043BAA68BFF35B8F5B68BFF3B9
:107EF0005B8F9A422DD00136042EF2D10026A9685C
:107F00005AF8040BFFF704FB002840F0ED8201361D
:107F1000042EF4D177E559F8040C1021FFF702FA8A
:107F200000283FF45AAED5ED007AB4EE678AF1EE40
:107F300010FA40F0C584A98857F82600FFF7E4F945
:107F40001021297557F8260042460023FFF790FAC2
:107F500009E559F8040C1021FFF7E4F90028CAD00C
:107F6000D5ED007AB4EE678AF1EE10FA40F0818424
:107F7000A98857F82600FFF7C7F91021297557F887
:107F8000260042460023FFF773FA3CE559F8040C3B
:107F90001021FFF7C7F900283FF448AFD5ED007A6C
:107FA000B4EE678AF1EE10FA40F09384A98857F88E
:107FB0002600FFF7A9F91021297557F82600424637
:107FC0000023FFF755FA7CE458F8040C1021FFF762
:107FD000A9F900283FF464AED6ED007AB4EE678AC2
:107FE000F1EE10FA40F04E84B18857F82500FFF703
:107FF0008BF91021317557F825004A460023FFF709
:1080000037FA73E459F8040C1021FFF78BF90028B4
:108010003FF465ADD5ED007AB4EE678AF1EE10FA63
:1080200040F01784A98857F82600FFF76DF9102152
:10803000297557F8260042460023FFF719FABEE4D7
:1080400058F8040C1021FFF76DF900283FF48EAEAC
:10805000D6ED007AB4EE678AF1EE10FA40F0E383D1
:10806000B18857F82500FFF74FF91021317557F8FF
:1080700025004A460023FFF7FBF92BE453F804CC14
:1080800090F84020DCF80010D1F860E5964500F04B
:108090006D83D1F864E5724500F06683D1F868E538
:1080A000724500F08A83D1F86C158A427FF4E5AD01
:1080B000D6ED007AB4EE678AF1EE10FA40F0C28392
:1080C000B18857F82800FFF71FF957F828004A46EB
:1080D000E9B20023FFF796F908E453F804CC90F8CE
:1080E0004020DCF80010D1F860E5964500F04C83A4
:1080F000D1F864E572450AD0D1F868E5724500F020
:108100005483D1F86C158A427FF41DAE0325D6ED59
:10811000007AB4EE678AF1EE10FA40F0A383B188DA
:1081200057F82800FFF7F0F857F828004A46E9B258
:108130000023FFF767F9FFF7CDBB53F804CC90F8A5
:108140004020DCF80010D1F860E5964500F0198376
:10815000D1F864E5724500F01183D1F868E59645E1
:1081600000F02083D1F86C158A427FF425AD4FF0E2
:108170000309D5ED007AB4EE678AF1EE10FA40F00B
:108180009183A98857F82600FFF7BEF857F8260014
:10819000424649460023FFF735F9FFF7E4BB53F8A1
:1081A00004CC90F84020DCF80010D1F860E572456E
:1081B00000F0F282D1F864E5724500F0D282D1F885
:1081C00068E5724500F0F382D1F86C1591427FF4B6
:1081D00082AE4FF00309D5ED007AB4EE678AF1EE76
:1081E00010FA40F06683A98857F82600FFF78CF84C
:1081F00057F82600424649460023FFF703F902E4F8
:108200000000E03FC47404000460002053F804CC74
:1082100090F84020DCF80010D1F860E5964500F0B9
:10822000AA82D1F864E5724500F0A282D1F868E52F
:10823000724500F0B482D1F86C158A427FF4E5AD46
:108240004FF00309D5ED007AB4EE678AF1EE10FA2B
:1082500040F02183A98857F82600FFF755F857F812
:108260002600424649460023FFF7CCF8FFF729BB1A
:1082700053F804CC90F84020DCF80010D1F860E509
:10828000964500F08682D1F864E5724500F07E8262
:10829000D1F868E5724500F08D82D1F86C159142F5
:1082A0007FF40CAC4FF00309D5ED007AB4EE678A89
:1082B000F1EE10FA40F0BF82A98857F82600FFF7C8
:1082C00023F857F82600424649460023FFF79AF85C
:1082D000FFF775BB15F096FE19F0ECFADB4B0022A8
:1082E00019F09AF919F000FE1FFA80F8E2E515F08E
:1082F00089FE19F0DFFAD54B002219F08DF919F03B
:10830000F3FD1FFA80F9A6E415F07CFE19F0D2FA0D
:10831000CE4B002219F080F919F0E6FD1FFA80F922
:10832000FFE415F06FFE19F0C5FAC84B002219F0F2
:1083300073F919F0D9FD1FFA80F8FFF7AEBB15F0FD
:1083400061FE19F0B7FAC14B002219F065F919F076
:10835000CBFD1FFA80F81EE415F054FE19F0AAFABE
:10836000BA4B002219F058F919F0BEFD1FFA80F837
:108370003AE59FEDB77AC7EE087AFCEEE77A17EE9A
:10838000902AB2F5004F80F065810123E9602B82CD
:10839000013A6A6009E59FEDAE7AC7EE087AFCEE15
:1083A000E77A17EE902AB2F5004F80F0E7800021BF
:1083B0000123E9602B82013A6A60FFF74DBB9FED14
:1083C000A47AC7EE087AFCEEE77A17EE902AB2F5A7
:1083D000004F80F0E7800123F1603382013A726040
:1083E0001AE49FED9B7AC7EE087AFCEEE77A17EE67
:1083F000902AB2F5004F80F0CB800123E9602B82F8
:10840000013A6A6037E59FED927AC7EE087AFCEE92
:10841000E77A17EE902AB2F5004F80F02481002110
:108420000123F1603382013A726059E49FED887A4A
:10843000C7EE087AFCEEE77A17EE902AB2F5004F05
:1084400080F01A8100210123E9602B82013A6A60E1
:10845000FFF780BB697D57F826000139C9B2FEF7E6
:1084600045FF297B57F82600FEF754FF4FF010090F
:10847000A98857F82600FEF747FF85F8149049466B
:1084800057F8260085ED008AFEF74CFF57F82600C6
:10849000494642460023FEF7EBFFFFF712BA717D13
:1084A00057F825000139C9B2FEF720FF317B57F894
:1084B0002500FEF72FFF4FF01008B18857F8250070
:1084C000FEF722FF86F81480414657F8250086ED16
:1084D000008AFEF727FF57F8250041464A46002349
:1084E000FEF7C6FFFFF7F6B9697D57F82600013998
:1084F000C9B2FEF7FBFE297B57F82600FEF70AFFFC
:108500004FF01009A98857F82600FEF7FDFE85F800
:108510001490494657F8260085ED008AFEF702FFC1
:1085200057F82600494642460023FEF7A1FFFFF711
:108530006ABA717D57F825000139C9B2FEF7D6FE37
:10854000317B57F82500FEF7E5FE4FF01008B188A3
:1085500057F82500FEF7D8FE86F81480414657F8F4
:10856000250086ED008AFEF7DDFE57F8250041461E
:108570004A460023FEF77CFFFFF7B8B9B2F5803F0B
:1085800080F0958001210223CA40E9602B8212E726
:10859000B2F5803F80F09D8001210223CA40E9604E
:1085A0002B822DE7B2F5803F80F08A8001210223E3
:1085B000CA40F160338211E7697D57F8260001391E
:1085C000C9B2FEF793FE297B57F82600FEF7A2FEFC
:1085D0004FF01009A98857F82600FEF795FE85F898
:1085E0001490494657F8260085ED008AFEF79AFE5A
:1085F00057F82600494642460023FEF739FFFFF7A9
:10860000B2B9697D57F826000139C9B2FEF76EFE8E
:10861000297B57F82600FEF77DFE4FF01009A98848
:1086200057F82600FEF770FE85F81490494657F873
:10863000260085ED008AFEF775FE57F826004946AC
:1086400042460023FEF714FFFFF7B9B90000E03FF0
:108650000024744BB2F5803F17D201210223CA4097
:10866000E9602B8294E6B2F5803F3BD201210223E0
:10867000CA40F1603382D6E6B2F5803F0ED20121C6
:108680000223CA40E9602B82E0E6B2F5003F32D215
:1086900002210423CA40E9602B8279E6B2F5003F4B
:1086A0003BD202210423CA40E9602B82CEE6B2F518
:1086B000003F3BD202210423CA40E9602B827AE6C4
:1086C000B2F5003F3BD202210423CA40F16033825D
:1086D00084E6B2F5003F3BD202210423CA40E960A0
:1086E0002B828DE6B2F5003F0ED202210423CA4050
:1086F000F160338297E6B2F5802F69D20321082317
:10870000CA40E9602B8243E6B2F5802F72D2032182
:108710000823CA40F160338285E6B2F5802F60D22B
:1087200003210823CA40E9602B828FE6B2F5802F2F
:1087300045D203210823CA40E9602B823BE6B2F50B
:10874000802F68D203210823CA40F160338245E6B6
:10875000B2F5802F57D203210823CA40E9602B824B
:108760004EE64FF0010936E50125A1E400259FE41E
:108770004FF0010966E54FF0000963E54FF001098C
:10878000F7E44FF00009F4E40025C0E44FF00109DC
:108790008AE54FF0000987E54FF000091BE54FF02F
:1087A00002094FE54FF00209E3E40225AFE44FF080
:1087B000020910E54FF0020976E5022578E4B2F5EA
:1087C000002F80F0BC8004212B82CA40E960F2E5D2
:1087D000B2F5002F80F0868004212B82CA40E96028
:1087E000D6E5B2F5002F80F08F8004212B82CA409D
:1087F000E9602BE6B2F5002F80F0988004213382E7
:10880000CA40F1600FE6B2F5002F74D204212B822A
:10881000CA40E960F4E5B2F5002F7ED2042133822C
:10882000CA40F160DAE5317B57F82500FEF772FDAA
:1088300086ED008A14E4297B6046FEF76BFD85ED2A
:10884000008A39E5317B6046FEF764FD86ED008ADB
:1088500036E4297B57F82600FEF75CFD85ED008A9B
:10886000FFF7E0BB317B6046FEF754FD86ED008AE2
:1088700055E4297B57F82600FEF74CFD85ED008A6C
:10888000FFF776BB317B57F82500FEF743FD86EDF9
:10889000008AFFF7A9BB297B6046FEF73BFD85ED0B
:1088A000008AD7E4297B6046FEF734FD85ED008A17
:1088B00067E4297B6046FEF72DFD85ED008A92E492
:1088C000297B57F82600FEF725FD85ED008AFFF786
:1088D00032BB297B57F82600FEF71CFD85ED008A88
:1088E000FFF764BBB2F5801F32D205212023CA40B6
:1088F000E9602B824CE5B2F5801F47D20521202389
:10890000CA40E9602B827BE5B2F5801F5CD205216D
:108910002023CA40E9602B8298E5B2F5801F3ED241
:1089200005212023CA40F160338257E5B2F5801F4C
:1089300053D205212023CA40F160338273E5B2F59A
:10894000801F0ED205212023CA40E9602B8232E528
:10895000B2F5001F0ED206214023CA40E9602B82E7
:1089600016E5B2F5001F0BD206214023CA40E9608C
:108970002B8220E507218023CA40E9602B8207E58E
:1089800007218023CA40E9602B8214E5B2F5001F5D
:108990000ED206214023CA40E9602B8230E5B2F5B1
:1089A000001F0BD206214023CA40F160338215E537
:1089B00007218023CA40E9602B8221E5072180231B
:1089C000CA40F160338209E5B2F5001F0ED20621DC
:1089D0004023CA40E9602B8238E5B2F5001F0BD274
:1089E00006214023CA40F16033821CE50721802321
:1089F000CA40E9602B8229E507218023CA40F16043
:108A0000338210E5F0B5254D6B6883B0002B41D063
:108A100093F90920002A3FDB5109214C2031012024
:108A200002F01F0200FA02F244F82120BFF34F8F38
:108A3000BFF36F8F6868197A5A68C0684FF4803640
:108A400006FA01F18B0003F5A0739BB20124002705
:108A50005460C2F80813D750D3580193019B804744
:108A60006B68197A93F909005A688E40B84214600D
:108A7000D460C2F8046308DB094A00F01F01400912
:108A80008C4042F820405A68197ADB6901F5A871D8
:108A900042F8213003B0F0BD1846CCE770650020E5
:108AA00000E100E0F0B5254DAB6883B0002B41D06C
:108AB00093F90920002A3FDB5109214C2031012084
:108AC00002F01F0200FA02F244F82120BFF34F8F98
:108AD000BFF36F8FA868197A5A68C0684FF4803660
:108AE00006FA01F18B0003F5A0739BB20124002765
:108AF0005460C2F80813D750D3580193019B8047A4
:108B0000AB68197A93F909005A688E40B84214602C
:108B1000D460C2F8046308DB094A00F01F01400971
:108B20008C4042F820405A68197ADB6901F5A87137
:108B300042F8213003B0F0BD1846CCE77065002044
:108B400000E100E0F0B5254DEB6883B0002B41D08B
:108B500093F90920002A3FDB5109214C20310120E3
:108B600002F01F0200FA02F244F82120BFF34F8FF7
:108B7000BFF36F8FE868197A5A68C0684FF480367F
:108B800006FA01F18B0003F5A0739BB201240027C4
:108B90005460C2F80813D750D3580193019B804703
:108BA000EB68197A93F909005A688E40B84214604C
:108BB000D460C2F8046308DB094A00F01F014009D1
:108BC0008C4042F820405A68197ADB6901F5A87197
:108BD00042F8213003B0F0BD1846CCE770650020A4
:108BE00000E100E0F0B5254D2B6983B0002B41D0AA
:108BF00093F90920002A3FDB5109214C2031012043
:108C000002F01F0200FA02F244F82120BFF34F8F56
:108C1000BFF36F8F2869197A5A68C0684FF480369D
:108C200006FA01F18B0003F5A0739BB20124002723
:108C30005460C2F80813D750D3580193019B804762
:108C40002B69197A93F909005A688E40B84214606A
:108C5000D460C2F8046308DB094A00F01F01400930
:108C60008C4042F820405A68197ADB6901F5A871F6
:108C700042F8213003B0F0BD1846CCE77065002003
:108C800000E100E02DE9F041DFF80081D8F8003084
:108C9000032B054607D0354A1368322B39DC0133E4
:108CA0001360BDE8F08100243149274623461A119C
:108CB000022A01EB830CC3F3420046D032F00202D9
:108CC0000BD1DCF8042051F82360B21A0932122AC1
:108CD00094BF00220122824017430233402BE6D189
:108CE0002449254814F086FD0A223946224814F00A
:108CF000DDFF2249204814F07DFD0A221E4821464E
:108D000014F04CFF194A0023C8F800301368322BC6
:108D1000C5DD00231A491848136014F06BFD0A22C0
:108D20001548294614F092FF164A1368002BB8D153
:108D30006DB2E9432B0443EA0163134843F47F43D4
:108D4000012103601160BDE8F08101EB830051F85F
:108D500023204068121A0932122AC3F3420094BF3A
:108D600000220122824014430233A0E774780020DD
:108D7000807800205C540400807900207C5404003A
:108D80006C5404008C650020186000206C78002072
:108D900008B52949294814F0FBFD294849F27041DA
:108DA0000CF0A4FEC0B126480DF0F8F970B12549C9
:108DB000224814F0EDFD224801210DF069FA20B19E
:108DC0001F4800210DF0DCFA60B908BDBDE808407D
:108DD0001D491A4814F0DCBDBDE808401B4917487E
:108DE00014F0D6BD164803210DF068F80028ECD029
:108DF0001348002201210DF0D1F80028E5D01048D9
:108E000000210CF091FF0028DFD00D4800210DF06B
:108E100031FB0028D9D04FF47A7015F00DF90848CD
:108E20000DF00EFB4FF47A7015F006F9BDE808401E
:108E30000749024814F0ACBDC454040080790020F6
:108E4000906500203855040010550400EC540400CF
:108E50004C550400000000002DE9F04F2DED028B71
:108E6000DFF8CCA1684FDFF8CCB168499FED688A84
:108E7000684EDFF8C491DFF8C4818DB0504614F01D
:108E800087FD3846002101F055FA9BED007A6249D2
:108E900089ED007AFDEEC77A642417EE902A04FB70
:108EA00002F307EE903AF8EEE77A02A8D7EE087AD6
:108EB0000025FDEEE77A17EE903A1AF09FF930465A
:108EC000012101F083FC02AB30460222CDE900858E
:108ED000082101F0E3FDDBF8040018F0DBFC46A3F9
:108EE000D3E9002318F050FD19F026F807EE100A18
:108EF000FDEEC77A494989ED007A17EE902A04FB06
:108F000002F307EE903AF8EEE77A02A8D7EE087A75
:108F1000FDEEE77A17EE903A1AF070F902AB3046A0
:108F2000CDE900851422082101F0B8FD9BED027AFD
:108F30003B4989ED007AFDEEC77A02A817EE902A28
:108F400004FB02F307EE903AF8EEE77AD7EE087AE0
:108F5000FDEEE77A17EE903A1AF050F902AB304680
:108F60002622CDE90085082101F098FDDBF80C00F0
:108F700018F090FC22A3D3E9002318F005FD18F0A7
:108F8000DBFF07EE100AFDEEC77A264989ED007A6D
:108F900017EE902A04FB02F307EE903AF8EEE77A18
:108FA00002A8D7EE087AFDEEE77A17EE903A1AF0AB
:108FB00025F902AB38223046CDE90085082101F0C1
:108FC0006DFD1949384601F049FB4FF4FA6015F080
:108FD00033F82946384601F0ADF91449504614F0EB
:108FE000D7FC384601F07CFB0DB0BDEC028BBDE830
:108FF000F08F00BFAFF300807B14AE47E17A843F6F
:10900000FCA9F1D24D62503F24670020F8550400BE
:109010000000C8425C780020045604001856040082
:1090200028560400385604004C6700204C560400B3
:109030008079002088660020206000206461002084
:1090400070B5B04808F008FE80B1AF4E3378013BF0
:10905000092B0BD8DFE813F05900BB01B3000A005D
:109060000A00E9001F018C010A002C00A74D2B7893
:10907000013B092B17D8DFE813F077007E00D00002
:109080001600160006013C011600160024000023FD
:109090009F48136009F0C8FD002800F02B84FEF7FC
:1090A00037FBFFF7D9FEBDE87040642014F0C4BF61
:1090B00098499948954D14F06BFC0A2200232A70B8
:1090C00033709649944814F063FC0021944801F0F1
:1090D00031F94FF4FA62FF21924819F0D5F992491B
:1090E0008F4801F0BBFA4FF4FA6014F0A5FF8F49E6
:1090F000894814F04DFC8A4801F0F2FA00232B70E5
:10910000BDE87040642014F097BF8949824814F08C
:109110003FFC8849804814F0CBFB7D480122772131
:1091200009F0F2FC18B984497B4814F031FC0421A1
:10913000774809F0A5FE0221754809F0B1FE032128
:10914000734809F0BDFE0221714809F0C9FE96225C
:109150004FF4A0716E4809F07BFEFFF719FE6B4AD1
:109160000121002311703370744A1368322B8EDC96
:109170000133136097E7122018F08EF9012892D17D
:109180006F49654814F004FC614809F04DFD002862
:1091900000F0B683FEF7BCFA6A4C01E00DF050F91E
:1091A000122018F079F901282046F7D066495A486C
:1091B00014F0EEFB4FF47A7014F03EFF73E7634C4B
:1091C0006349554814F0E4FBD4ED057A9FED617ACC
:1091D000614BE360F4EEC77A0023F1EE10FA3370CE
:1091E00040F1B3815D494C4814F004FB5C494A48A6
:1091F00014F0D2FA94ED057ADFED5A7A67EE277A09
:1092000017EE900A18F068FB41EC100B424802215F
:1092100014F00EFC3D4B03221A701120FFF732FDB3
:10922000BDE87040642014F007BF484C4E493A48EE
:1092300014F0AEFBD4ED057A9FED467A464BE36021
:10924000F4EEC77A0023F1EE10FA337040F1168184
:109250004249314814F0CEFA41492F4814F09CFAA3
:1092600094ED057ADFED3F7A67EE277A17EE900AE4
:1092700018F032FB41EC100B2748022114F0D8FB08
:10928000224B06221A701220FFF7FCFCBDE870404A
:10929000642014F0D1BE2D4C34491F4814F078FBE3
:1092A000D4ED057A9FED2B7A2B4BE360F4EEC77A71
:1092B0000023F1EE10FA337040F149822749164835
:1092C00014F098FA2649144814F066FA94ED057AD9
:1092D000DFED247A67EE277A17EE900A18F0FCFA91
:1092E00041EC100B0C48022114F0A2FB074B0722A3
:1092F0001A701320FFF7C6FCBDE87040642014F01C
:109300009BBE00BFBC8600201C6700207C7800202C
:1093100088660020C857040080790020F8550400B2
:10932000246700204C670020005E04004C560400B7
:10933000645604008454040090540400747800209F
:1093400024540400906500204C5404004065002023
:109350000C5704000050434835780200845904003B
:1093600060550400CDCCCC3D3C5704006857040048
:10937000AB4CAC49AC4814F00BFBD4ED057A9FED37
:10938000AB7AAB4BE360F4EEC77A0023F1EE10FA50
:10939000337040F14382A749A34814F02BFAA64941
:1093A000A14814F0F9F994ED057ADFEDA47A67EE9F
:1093B000277A17EE900A18F08FFA41EC100B9A48B2
:1093C000022114F035FB9E4B08221A706BE69D4972
:1093D00095489B4D14F0DCFA9B49934814F0D8FA59
:1093E00002229A4990482A700023337014F060FAE0
:1093F00097480122772109F087FB002800F0758249
:1094000004219348864C09F03BFD0221904809F065
:1094100047FD03218E4809F053FD02218C4809F0D5
:109420005FFD96224FF4A071894809F011FDFFF706
:10943000AFFCD4ED057A9FED877A7D4BE360F4EEC7
:10944000C77AF1EE10FA40F11B817A49764814F0A0
:10945000D1F97949744814F09FF994ED057ADFED5C
:10946000777A67EE277A17EE900A18F035FA41EC12
:10947000100B02216C4814F0DBFAF8E5FCEEE77AF9
:109480009FED757A754B6B496748A361F8EE677A73
:109490004FF4803567EE877AFCEEE77AC4ED077A01
:1094A00014F0A8F96E49604814F076F90A224021B8
:1094B0005D4814F0FBFB6B495B4814F06DF96A4B97
:1094C0002278594853F8221014F094F96749564805
:1094D00014F062F9606918F0FFF941EC100B0221F9
:1094E000514814F0A5FA53494F4814F083F96049E4
:1094F0004D4814F051F99FED480B02214A4814F0F1
:10950000A7F95C49484814F047F9E16946480A223E
:1095100014F06AFB227A94F90900636801219540EE
:1095200000281960D960C3F8045308DB524B00F0DF
:109530001F024009914043F820106368227AE169D4
:1095400002F5A87243F822109AE6FCEEE77A9FED46
:10955000427A424B37493448A361F8EE677A4FF4B8
:10956000803567EE877AFCEEE77AC4ED077A14F06F
:1095700041F93B492C4814F00FF90A2240212A48AE
:1095800014F094FB3749284814F006F9364B22783A
:10959000254853F8221014F02DF93449224814F0CC
:1095A000FBF8606918F098F941EC100B02211E4895
:1095B00014F03EFA1F491C4814F01CF92C491A48B3
:1095C00014F0EAF89FED140B0221174814F040F94B
:1095D0002849154814F0E0F8E16913480A2214F00C
:1095E00003FB227A94F90900636801219540002861
:1095F0001960D960C3F8045308DB1F4B00F01F0249
:109600004009914043F820106368227AE16902F52D
:10961000A87243F82210FDE5000000000088D34046
:10962000406500209857040080790020005043488E
:10963000357802008459040060550400CDCCCC3D3F
:109640007C78002094560400BC5604008454040026
:10965000886600200000FA4417B7513800409C4645
:10966000A8550400B855040070590400C4550400FE
:10967000DC550400EC55040000E100E00AD7A33BF0
:10968000FCEEE77A1FED037AA54BA649A648A36135
:10969000F8EE677A4FF4803667EE877AFCEEE77A69
:1096A000C4ED077A14F0A6F8A0499F4814F074F8A6
:1096B0000A2240219C4814F0F9FA9D499A4814F076
:1096C0006BF89C4B2278984853F8221014F092F8CB
:1096D0009949954814F060F8606918F0FDF841EC7C
:1096E000100B0221904814F0A3F98E498E4814F013
:1096F00081F892498C4814F04FF89FED850B0221B8
:10970000894814F0A5F88E49874814F045F8E169B6
:1097100085480A2214F068FA227A94F909006368ED
:109720000121964000281960D960C3F8046308DB62
:10973000844B00F01F024009914043F820106368F9
:10974000227AE16902F5A87243F822108FE4FCEE58
:10975000E77A9FED7D7A7D4B72497348A361F8EEFD
:10976000677A4FF4803567EE877AFCEEE77AC4EDCE
:10977000077A14F03FF86D496B4814F00DF80A228F
:109780004021694814F092FA6949674814F004F8D6
:10979000684B2278644853F8221014F02BF866497D
:1097A000614813F0F9FF606918F096F841EC100B6E
:1097B00002215D4814F03CF95A495B4814F01AF84C
:1097C0005E49594813F0E8FF9FED530B02215648BC
:1097D00014F03EF85A49544813F0DEFFE16952484C
:1097E0000A2214F001FA227A94F90900636801212F
:1097F000954000281960D960C3F8045308DB514B29
:1098000000F01F024009914043F820106368227A5B
:10981000E16902F5A87243F8221067E5FCEEE77AE9
:109820009FED497A494B3F493F48A361F8EE677A7B
:109830004FF4803567EE877AFCEEE77AC4ED077A5D
:1098400013F0D8FF3949384813F0A6FF0A22402107
:10985000354814F02BFA3649334813F09DFF354B49
:109860002278314853F8221013F0C4FF32492E48B1
:1098700013F092FF606918F02FF841EC100B0221F1
:10988000294814F0D5F82749274813F0B3FF2B498E
:10989000254813F081FF9FED200B0221224813F091
:1098A000D7FF2749204813F077FFE1691E480A22B5
:1098B00014F09AF9227A94F909006368012195401D
:1098C00000281960D960C3F8045308DB1D4B00F071
:1098D0001F024009914043F820106368227AE16931
:1098E00002F5A87243F822106DE519490E4814F0EC
:1098F0004FF885E517490C4814F04AF8FFF7D1BB3B
:109900001449094814F044F846E400BFAFF300805E
:109910000000000000006940000000000088D34003
:10992000000048438459040080790020A8550400B1
:10993000B855040070590400C4550400DC550400F7
:10994000EC55040000E100E017B7513800409C4698
:10995000905404002C5404002DE9F0472DED028BA7
:10996000C249C348C34C82B014F012F8C249C0487F
:1099700014F00EF800220121C04807F085FFC0490D
:10998000BE4808F017F9BF49BC4807F05FF9BE4967
:10999000BA4807F05DF9BD49BD48082208F026FA2B
:1099A000BC49BB48092208F015FABB49B848032254
:1099B00008F014FA0322B949B54808F013FAB4487C
:1099C00008F04EFAB64808F0E7F96421B44808F008
:1099D000B7F9B44807F02EFCB348062106F024FC82
:1099E00011221146B04806F035FCAF48012106F0BF
:1099F0001FFC0122AD49AC4806F032FCAA4806F033
:109A000089F90621AA4805F087FFA94805F06CFFEF
:109A1000A84805F03BFFA349A54805F021FFA4484D
:109A200005F034FFA248012105F0A8FFF422A04868
:109A3000202105F09FFF9E481E2105F099FF9C48BC
:109A4000002105F0FBFFD4ED057A9FED9B7A9B4B3F
:109A5000E360F4EEC77AF1EE10FA40F1858198499F
:109A6000834813F0C7FE9749814813F095FE94EDA3
:109A7000057ADFED957A67EE277A17EE900A17F0F0
:109A80002BFF41EC100B0221794813F0D1FF8F49D5
:109A9000774813F00DFF0121102017F05BFC022125
:109AA0000F2017F057FC0021102017F0D7FC884931
:109AB000884F02220F2014F05FF9182016F006FEDE
:109AC000D7ED007A0446FDEEE77A00254FF48036A4
:109AD000012241F2FF0C009617EE900A2B46294610
:109AE0002282A4F814C06422A560A57514F08AFA35
:109AF000D7ED007A0096FDEEE77AA8422B4617EEE6
:109B0000900A29464FF06402C0F2A08114F07AFA5C
:109B100017F0D0FE704B002217F080FD18F0E4F92A
:109B200085B26E4B6582DB68D90100F1158115F0B5
:109B30009BFC6B4B658AA0FB0301830A43EA8153BC
:109B4000684AD4ED007A92ED008AA360BCEEC88A20
:109B5000B8EE488AF4EE487AF1EE10FA40F08F81C0
:109B600062680092002319464FF48032284614F0B0
:109B700049FA6368009300284FF00003284619460D
:109B80004FF48032C0F26E8114F03CFA17F092FE6E
:109B9000514B002217F042FD18F0A6F91FFA80F889
:109BA000514E524FB1463346002553F8042BA1685D
:109BB000BFF35B8F5268BFF35B8F914200F09C80D4
:109BC0000135042DF1D1DFF820A100275AF8043B1C
:109BD000A268BFF35B8F5B68BFF35B8F9A4227D0AD
:109BE0000137042FF2D10027A16856F8040BFDF7C6
:109BF0008FFC0546002840F05D810137042FF3D12A
:109C00003B4BA575002112201C6017F0A3FB01211E
:109C1000052017F09FFB0121052017F01FFC354997
:109C2000134802B0BDEC028BBDE8F04713F0B0BEA4
:109C30005AF8040C1021FDF775FB05460028CFD01B
:109C4000D4ED007AB4EE678AF1EE10FA40F0758137
:109C5000A18859F82700FDF757FB102159F8270074
:109C6000217542460023FDF703FCC9E7F8570400BD
:109C700080790020406500201C580400BC8600202C
:109C80003458040099760200E17602004C58040032
:109C900040660020585804006458040068580400C6
:109CA000D065002044780020EC770020ED7502009C
:109CB0004489002080890020005043483578020004
:109CC0008459040060550400CDCCCC3D6C58040090
:109CD000F9750200206700200000E03FF0ED00E091
:109CE00040420F001C60002004600020C474040087
:109CF00060650020C458040053F804CC97F8402055
:109D0000DCF80010D1F86005904200F00781D1F82E
:109D10006405824200F00481D1F86805824200F0B7
:109D20000181D1F86C158A427FF44AAF0326D4ED45
:109D3000007AB4EE678AF1EE10FA40F006816046D0
:109D4000A188FDF7E1FA59F8250042463146002383
:109D5000FDF758FB012553E78D4B1A68D2077FF5B5
:109D6000E6AE5B689B09EBE6FCEEE77A9FED897A4D
:109D7000894B8A498A48A361F8EE677A4FF48035A7
:109D800067EE877AFCEEE77AC4ED077A13F032FDCE
:109D90008449834813F000FD0A224021804813F0D3
:109DA00085FF81497E4813F0F7FC804B22787C4880
:109DB00053F8221013F01EFD7D49794813F0ECFC96
:109DC000606917F089FD41EC100B0221744813F013
:109DD0002FFE7249724813F00DFD7649704813F05A
:109DE000DBFC9FED690B02216D4813F031FD7249D8
:109DF0006B4813F0D1FCE16969480A2213F0F4FEC4
:109E0000237A94F90900626801219D4000281160BD
:109E1000D160C2F8045308DB684B00F01F02400910
:109E2000914043F820106268237AE46964495C48F1
:109E300003F5A87342F8234013F0AEFC14F0F0F8D9
:109E40000A220146564813F0CFFE24E614F0DAF851
:109E500017F030FD5B4B002217F0DEFB18F044F8E2
:109E600085B25EE614F0CEF817F024FD554B0022C3
:109E700017F0D2FB18F038F81FFA80F890E69FED43
:109E8000527AC7EE087AFCEEE77A17EE902AB2F51E
:109E9000004F0AD3B2F5803F2ED201210223CA40DF
:109EA000E1602382013A62605BE600210123E16008
:109EB0002382F7E7617D59F827000139C9B2FDF720
:109EC00015FA217B59F82700FDF724FA1026A188FE
:109ED00059F82700FDF718FA314659F8270084EDA4
:109EE000008A2675FDF71EFA59F8270031464246CA
:109EF0000023FDF7BDFA83E6B2F5003F08D3B2F5C3
:109F0000802F11D203210823CA40E1602382C9E7D0
:109F100002210423CA40E1602382C3E7002606E74A
:109F2000012604E7022602E7B2F5002F16D204212B
:109F30001023CA40E1602382B4E7217B59F827004F
:109F4000FDF7E8F984ED008A82E66046217BFDF7A3
:109F5000E1F959F825C084ED008AF0E6B2F5801FDA
:109F600005D205212023CA40E16023829AE7B2F599
:109F7000001F35BF0621072140238023CA40E1602E
:109F800023828FE7AFF30080000000000088D340F9
:109F9000001000E017B7513800409C468459040077
:109FA00080790020A8550400B855040070590400B9
:109FB000C4550400DC550400EC55040000E100E049
:109FC000A05804000000E03F0024744B10B5044B7F
:109FD000044640F8083B07F069F9204610BD00BF71
:109FE000546F040010B5074B044640F8183B05F0C9
:109FF00077FE2046044B40F8083B07F057F920460F
:10A0000010BD00BFE86F0400546F040010B5044B8E
:10A01000044640F8083B07F049F9204610BD00BF50
:10A02000546F04002DE9F041424D434C434E444FE0
:10A03000DFF8648184B0284600F0B6F82246414932
:10A04000284618F059F932460C213F4808F040FDE7
:10A05000314611223D483E4E0BF012FD3D4A3E4B2B
:10A06000D2E9000118603D483D4B43600421017076
:10A07000D3F80825017442F00302C3F80825D3F889
:10A08000042522F00302C3F80425D3F8102522F09A
:10A090000F020A43C3F81025324A334B10614FF4C4
:10A0A000D8520281002243613049C260224618F032
:10A0B00023F92F49684607F019F96946384607F031
:10A0C000D5F8684607F0F2F822462A49384618F0D3
:10A0D00013F92949294F684607F008F969463046BF
:10A0E00006F05EF8684607F0E1F82246244930465B
:10A0F00018F002F9404607F07DFE22462149224E23
:10A10000404618F0F9F8384607F022FE22461F496B
:10A11000384618F0F1F8D5E902231D49D20030463F
:10A1200000F03EFB1B492246304618F0E5F804B02B
:10A13000BDE8F081246700200060002090860020A8
:10A14000447800209DA102008866002090650020D0
:10A15000EC770020686500207078002040650020C2
:10A1600000B001407065002000247449DD750200D4
:10A17000DC580400CD9F020000590400D065002087
:10A18000E1FC02000DA002005C780020E59F0200C7
:10A190004C670020C9A702004066002010B50446A5
:10A1A00000F0BAFA204610BD38B5044600F0B2FA05
:10A1B00007220823092506207A216261A361102263
:10A1C000FA23C4E90750C4E901322160E360204664
:10A1D00038BD00BF2DE9F04104460F4680699DF867
:10A1E0001880002115461E4600F098FA442000F021
:10A1F0009BFAA069012100F091FAF80800F094FAA6
:10A20000A069012100F08AFAF00800F08DFAA06937
:10A21000002100F083FA452000F086FAA0690121B0
:10A2200000F07CFA284600F07FFAA069012100F0D6
:10A2300075FA002000F078FAA069012100F06EFAAA
:10A24000404600F071FAA069012100F067FABDE80C
:10A25000F041002000F068BA2DE9F041884606463A
:10A260000021806900F05AFA322000F05DFA08F10E
:10A27000FF3408F1980714F8015FB069012100F07C
:10A280004DFA284600F050FABC42F4D1B0690021E2
:10A2900000F044FA3F2000F047FA98F89940B0697E
:10A2A000012100F03BFA204600F03EFAB06900219F
:10A2B00000F034FA032000F037FA98F89A40B069B9
:10A2C000012100F02BFA204600F02EFAB06900219F
:10A2D00000F024FA042000F027FA98F89B40B069B7
:10A2E000012100F01BFA204600F01EFA98F89C406D
:10A2F000B069012100F012FA204600F015FA98F832
:10A300009D40B069012100F009FA204600F00CFAE6
:10A31000B069002100F002FA2C2000F005FA98F84C
:10A320009E40B069012100F0F9F92046BDE8F041F6
:10A3300000F0FAB970B582B004460E4600F006FA95
:10A34000002840F0848105460121606900F0E6F9AB
:10A35000142000F0E7F92946606900F0DFF90220D7
:10A3600000F0E0F96069012100F0D8F9142000F054
:10A37000D9F92561002E00F0BC80012E40F06781E4
:10A380002946606900F0CAF9304600F0CBF96069EF
:10A39000314600F0C3F92046AE49FFF75DFF29467C
:10A3A000A06900F0BBF9372000F0BEF93146A06982
:10A3B00000F0B4F9284600F0B7F93146A06900F082
:10A3C000ADF9284600F0B0F93146A06900F0A6F9D1
:10A3D000284600F0A9F93146A06900F09FF9284607
:10A3E00000F0A2F93146A06900F098F9284600F083
:10A3F0009BF93146A06900F091F9402000F094F9F2
:10A400003146A06900F08AF9284600F08DF93146FE
:10A41000A06900F083F9284600F086F93146A0696A
:10A4200000F07CF9284600F07FF93146A06900F081
:10A4300075F9284600F078F92946A06900F06EF910
:10A440003C2000F071F93146A06900F067F98020E6
:10A4500000F06AF92946A06900F060F9222000F0B6
:10A4600063F93146A06900F059F9C02000F05CF9A9
:10A47000A069294600F052F9202000F055F901E0CA
:10A4800000F050F9206A00F04BF905460A20002D33
:10A49000F6D1F9232A460093294679232046FFF76F
:10A4A00099FE2946A06900F039F94E2000F03CF9E8
:10A4B0000121A06900F032F9284600F035F929465B
:10A4C000A06900F02BF94F2000F02EF90121A069BE
:10A4D00000F024F9284600F027F9A069012100F0D6
:10A4E0001DF9284600F020F9284602B070BD00F0A2
:10A4F00019F9206A00F014F901460A200029F6D162
:10A50000A06900F00BF9122000F00EF901E000F054
:10A5100009F9206A00F004F905460A20002DF6D159
:10A520002946A06900F0FAF8012000F0FDF8A069C2
:10A53000012100F0F3F8F92000F0F6F8A0690121FC
:10A5400000F0ECF8284600F0EFF8A069012100F0D7
:10A55000E5F8284600F0E8F82946A06900F0DEF8A2
:10A56000112000F0E1F8A069012100F0D7F80320E4
:10A5700000F0DAF8F9232A46009329467923204689
:10A58000FFF728FE2946A06900F0C8F84E2000F029
:10A59000CBF8A069012100F0C1F8284600F0C4F80A
:10A5A0002946A06900F0BAF84F2000F0BDF8A06974
:10A5B000012100F0B3F8284600F0B6F8A0690121A7
:10A5C00000F0ACF8284600F0AFF82946A06900F08A
:10A5D000A5F83C2000F0A8F8A069012100F09EF841
:10A5E000052000F0A1F82946A06900F097F8212085
:10A5F00000F09AF8A069012100F090F8284600F0D8
:10A6000093F8A069012100F089F8802000F08CF80F
:10A610002946A06900F082F8182000F085F8A069AA
:10A62000012100F07BF8802000F07EF801E000F0CE
:10A6300079F8206A00F074F805460A20002DF6D15A
:10A6400020460549FFF708FE284602B070BD4FF0CE
:10A65000FF3549E7C4600020246000202DE9F04167
:10A660000746D9B188468069002100F057F82420B8
:10A6700000F05AF808F10F0608F6AF78A6F11004BA
:10A6800014F8015FB869012100F048F8284600F08D
:10A690004BF8A642F4D110364645EFD1B8690021F7
:10A6A00000F03CF8222000F03FF8B869012100F0EA
:10A6B00035F8C72000F038F8B869002100F02EF80E
:10A6C000202000F031F801E000F02CF8386A00F0AA
:10A6D00027F803460A20002BF6D1BDE8F08100BF21
:10A6E00010B500210446806900F018F8102000F031
:10A6F0001BF80121A06900F011F8012000F014F806
:10A70000C82000F00FF860690021BDE8104000F09B
:10A7100005B800BF704700BF704700BF16F09EBE6F
:10A7200016F0BABE13F088BC10B50021044609200B
:10A7300016F094FE2146044805F022F8BDE81040CA
:10A740000121092016F08ABE9086002010B5012153
:10A7500082B0092016F0FEFD0121072016F0FAFD57
:10A760000D4C0121082016F0F5FD0021062016F001
:10A77000F1FD204604F024FF084B00934FF4807352
:10A78000ADF8043002AB204613E9060004F05CFF8C
:10A79000002002B010BD00BF9086002080841E0003
:10A7A00010B40160002412F00701C46006D0A41A9E
:10A7B00004F0070458BF61420832521AC0E901236D
:10A7C0005DF8044B704700BF704700BFF0B54468A8
:10A7D000002C21DD856800234FF0800C002D18DD52
:10A7E00003F007074CFA07F77FB26FEA070ED9B9F3
:10A7F0000A4602FB0436A3424FEAE6060DDA056874
:10A80000AC5D0EEA0404AC55D0E901450132AA4220
:10A81000EFDB0133A342E1DBF0BD01329542E8DC1E
:10A820000133A342DADBF7E7002204FB0236A3423E
:10A830004FEAE6060EDA0568AC5D3C43AC55D0E95C
:10A84000014501329542E4DD04FB0236A3424FEAA2
:10A85000E606F0DB0132AA42E7DB0133A342BDDBAF
:10A86000DAE700BF2DE9F04F87B0203BDDF84090DC
:10A870000192B9F80440B9F80660D9F8005014F014
:10A88000070718BF012707EBD40706FB03F38B4626
:10A8900003FB0751002E54D04FF0000E8025002CF2
:10A8A0004BD0019B03EB0E0C0CF0070745FA07F7A2
:10A8B0007FB26FEA070A0023029706E0072A03F136
:10A8C000010308BF01319C4232DD0F7803F007021B
:10A8D00045FA02F63742F1D0C76803EB0B069FBB7F
:10A8E000002EEBDBD0F80480B045E7DDBCF1000FB3
:10A8F000E4DB87686745E1DD119C002C40F09E8019
:10A900000CFB0864E410D0F8008006F0070618F885
:10A91000047045FA06F627EA060608F80460B9F856
:10A920000440072A03F1010308BF01319C42CCDC3B
:10A930006307B9F8066018BF01310EF1010E7645C4
:10A94000ADDC07B0BDE8F08F012F24D0022F43D03B
:10A95000032FB3D1002EB1DB8768B742AEDDBCF167
:10A96000000FABDBD0F80480E045A7DDBE1BB7428B
:10A97000A4DD119C06FB08C6002C00F08580F410B5
:10A98000D0F80080029F18F804603E4308F8046085
:10A99000B9F8044092E7002E90DB8768B7428DDD5E
:10A9A000BCF1000F8ADB4768674587DDA7EB0C0821
:10A9B000474583DD119C002C50D006FB0786F6101E
:10A9C000076808F00704BF5D45FA04F43C430768D4
:10A9D000BC55B9F8044071E7002EFFF66FAF476829
:10A9E0000397B7427FF76AAFBCF1000FFFF666AF7F
:10A9F000D0F80880E0457FF761AFBE1BB742CDE9D4
:10AA000004667FF75BAFA8EB0C06B0457FF756AF47
:10AA1000119C9CB3DDE9037406FB07444FEAE4088C
:10AA20000668049C16F8087004F0070445FA04F45C
:10AA30003C4306F80840B9F804403FE70CFB0867C0
:10AA4000FF1006F00704066816F8078045FA04F4BC
:10AA500044EA0804F455B9F804402FE706FB0784DC
:10AA6000E410076808F007063F5D45FA06F627EA96
:10AA7000060607683E55B9F804401FE73446039FB1
:10AA8000059E04FB07643DE7F41007683E5D0AEA93
:10AA900006063E55B9F8044010E700BF2DE9F04125
:10AAA0001D461B7882B0DDE908686BB10C4617467D
:10AAB0002146CDE900683A46FFF7D4FEB18815F883
:10AAC000013F0C44002BF3D102B0BDE8F08100BF80
:10AAD0000146014800F0EABAA079002038B5064BDB
:10AAE0001D783DB100242046013400F0F1FDE0B2B4
:10AAF0008542F9D838BD00BF9C79002070B592B06E
:10AB00001D460C46164601A84222002117F0BCFC47
:10AB1000412D5CD9631C0222DBB28DF806408DF812
:10AB20000E408DF8264040F6083540F202248DF89C
:10AB30001E308DF827308DF83130ADF804508DF887
:10AB400007208DF812208DF833208DF83B20ADF8CA
:10AB50000840204A069240F2012505232424ADF83E
:10AB600010508DF815308DF8164004231A4C8DF8CE
:10AB70001F30012540F224628DF81C508DF83030D2
:10AB80000894ADF82420154D0A9508234FF411645C
:10AB90000A228DF82C30ADF82E4040238DF8342059
:10ABA0000F4C8DF83C3001A9304640F2075540F279
:10ABB00009464222ADF80C60ADF838508DF84330AC
:10ABC000CDF83F4017F038FC422012B070BD002095
:10ABD00012B070BD20010524240202050705800380
:10ABE00007058002007EFF280AD010B500F018FD8E
:10ABF000044608B1204610BD16F0B4F9204610BD39
:10AC000000207047007EFF280ED000B583B00DF104
:10AC1000070100F053FD20B19DF8070003B05DF877
:10AC200004FB4FF0FF30F9E74FF0FF30704700BFF3
:10AC3000007EFF280FD000B583B001220DF107017F
:10AC400000F0FAFC20B19DF8070003B05DF804FBAA
:10AC50004FF0FF30F9E74FF0FF307047007EFF28DC
:10AC600001D000F035BD7047007EFF2801D000F014
:10AC700097BD0020704700BFF8B50646007EFF284C
:10AC80001CD017465AB10D46144600F0A5FC2946C3
:10AC9000224680B1307E00F05FFD241A01D1384693
:10ACA000F8BD054416F05EF9307E00F095FC2946AB
:10ACB00022460028EED13F1B3846F1E70020F8BDC0
:10ACC00070B50368184A5B6882B093428DF807102C
:10ACD00021D10546007EFF2823D000F07DFC0DF138
:10ACE000070601243146224688B1287E00F034FD53
:10ACF000241A02D1012002B070BD064416F032F9C8
:10AD0000287E00F069FC314622460028EDD1C4F1CE
:10AD1000010002B070BD01220DF10701984702B099
:10AD200070BD002002B070BD79AC020070B592B069
:10AD30001D460C46164601A84222002117F0A4FB2E
:10AD4000412D5CD9631C0222DBB28DF806408DF8E0
:10AD50000E408DF8264040F6083540F202248DF86A
:10AD60001E308DF827308DF83130ADF804508DF855
:10AD700007208DF812208DF833208DF83B20ADF898
:10AD80000840204A069240F2012505232424ADF80C
:10AD900010508DF815308DF8164004231A4C8DF89C
:10ADA0001F30012540F224628DF81C508DF83030A0
:10ADB0000894ADF82420154D0A9508234FF411642A
:10ADC0000A228DF82C30ADF82E4040238DF8342027
:10ADD0000F4C8DF83C3001A9304640F2075540F247
:10ADE00009464222ADF80C60ADF838508DF843307A
:10ADF000CDF83F4017F020FB422012B070BD00207C
:10AE000012B070BD2001052424020205070580034D
:10AE100007058002037EFF2B02D1074B1A7802B18F
:10AE20007047064902764161012200F11001044891
:10AE30001A7000F0DBB800BF9C790020A06D040000
:10AE4000A0790020007EFF280ED000B583B000F06E
:10AE5000C3FB10B103B05DF804FB019016F082F85B
:10AE6000019803B05DF804FB0020704701B900B100
:10AE7000704700B583B0694600F0C4FB009BB3F592
:10AE8000966F02D003B05DF804FB00F053FBF9E7C6
:10AE900030B4084B084AFF2002F108054FF47A74D9
:10AEA0000021303218761D609C601A6130BC5960F8
:10AEB0005961704780790020B06D04000378002B41
:10AEC00000F09280F0B50546002004462E4603E0CF
:10AED00001342B5D2E19C3B103F14002D2B2012A15
:10AEE000F6D9F42BF4D81A0610D40122A3F558464B
:10AEF000B6F5006FECD31444202806D021F81030AA
:10AF00002B5D01302E19002BE6D1F0BD03F0E002DD
:10AF1000C02A52D003F0F002E02A61D003F0F80218
:10AF2000F02AD5D103F007030427727802F0C00C91
:10AF3000BCF1800FCCD196F802C00CF0C00E02F02C
:10AF40003F02BEF1800F42EA8313C1D10CF03F0CE7
:10AF5000032F4CEA83132AD0F27802F0C006802E29
:10AF6000B6D102F03F0242EA8313A3F58032B2F574
:10AF7000801F38BF0427ABD2A3F55842B2F5006F4B
:10AF8000A6D3B3F5803F3C44B6D31E28BDDCA3F561
:10AF9000803342009E0A0A44C3F30903A6F52056F3
:10AFA000A3F5105321F810605380023091E7A3F508
:10AFB0000062B2F5784FDFD38AE7727802F0C006FC
:10AFC000802E03F01F0383D102F03F0242EA831375
:10AFD000A3F18002B2F5F06FBFF47AAF022285E7E9
:10AFE00003F00F030327A0E718467047F8B505469E
:10AFF000B0F818016C69B5F81A310A680E460444B5
:10B000001B1A176895F81C119BB222463046B847A8
:10B0100050B3221894423CD2766806E0052B25D026
:10B0200023780BB31C44A24233D96378042BF5D1A7
:10B03000E378002BF4D195F81C11013185F81C112F
:10B04000002EEDD095F850110B29E9D801F14807F1
:10B0500045F82760217295F85011013185F850119B
:10B060001E462378002BDDD10020F8BD94F9023074
:10B07000002B08DB95F81E31591C85F81E11A178AC
:10B080000B43A370CCE795F81D31591C85F81D11B1
:10B09000F5E7B5F818216B69104480B2A5F81801DE
:10B0A000588095F81C211A710120F8BD2DE9F04354
:10B0B000264DDFF8A890AC4604468846BCE80F0051
:10B0C00089B003AF0FC703AE0FCE05F1140E2546AE
:10B0D0000FC59EE80700DCF800303B806B46366801
:10B0E0002E8003C36B4603CB012504F118034FF4F4
:10B0F00080766361A061E16184F8202004F5987096
:10B10000C4F818912022A4F81C61002184F81E5173
:10B1100017F0BAF90E4E0F48A571042240F2EF2342
:10B1200040F209470021C4E94A0184F85021A38074
:10B130004FF4E131C4E948760748FFF76BFE40461B
:10B1400000F0E6F9284609B0BDE8F083206E04005F
:10B15000E46D0400F06D0400807900200900000116
:10B160002DE9F047D0F82C0188B00E4630B10231FD
:10B17000FFF7A4FEC0B208B0BDE8F087684600F053
:10B18000DBF98646F8B1431E06F10409DBB2114D26
:10B19000E84609EB830904AC95E80F0018F8017B39
:10B1A00084E80F0007F00F0C0DF1200AD4440AEBDD
:10B1B00017171CF810CC17F8103CA6F804C07380C1
:10B1C0000436B145E8D14FEA4E00C0B208B0BDE840
:10B1D000F08700BF0C6E040000487047A079002083
:10B1E000014B5869704700BFA079002010B5B0B17D
:10B1F00003281CD0154C94F85031834223D9483091
:10B2000004F5AA7154F82000FFF758FEC3B20133C9
:10B210005B0043F440730E48A4F8523110BD0B4C50
:10B22000D4F82031A4F854314FF44173F3E70849BE
:10B23000A1F5A9742046FFF793FF431C5B0043F47C
:10B2400040739BB2E7E7002010BD00BFA07900204B
:10B25000F27A0020024B53F8200000B100697047D9
:10B26000347B002030B4094CBDF8085054F820401D
:10B2700044B1646934B10846A44611461A462B46C7
:10B2800030BC6047002030BC704700BF347B0020DA
:10B2900030B4084CBDF8085054F8204044B1A469BB
:10B2A00034B10846A44611461A462B4630BC6047C6
:10B2B00030BC7047347B002000207047024B186878
:10B2C00008B190F8600070473C7B00202DE9F843FE
:10B2D000234C2568002D40D01E462C2303FB005331
:10B2E0000446D3F8209088461746B9F1000F30D0B5
:10B2F000484617F0D8FF0828024628BF08222C200D
:10B3000000FB0454D4E90954DFF85CC0154B002D50
:10B3100008BF654649464046002C08BF1C4617F04A
:10B320008BF8284617F0BFFF10280246294628BF91
:10B330001022384617F080F8204617F0B4FF042892
:10B3400002462146304628BF0422BDE8F84317F0E4
:10B3500073B8DFF818900822D1E7BDE8F88300BF82
:10B360003C7B002068580400406E0400E46D04003B
:10B3700070B5104E3368CBB12C2404FB0034054665
:10B3800062691AB19047336884F832002C2202FBBC
:10B39000053393F832400CB1204670BD2846234651
:10B3A0003A22022101F016F8204670BD1C462046C4
:10B3B00070BD00BF3C7B0020074B1B6853B110B42D
:10B3C0002C2404FB0030C46A038E0C605DF8044B2F
:10B3D00013807047704700BF3C7B002008B52022D7
:10B3E0000023052100F0F6FF4FF0FF3008BD00BF3D
:10B3F00030B4084C256855B10446084611461A4633
:10B400002C2303FB0454E3690BB130BC1847012023
:10B4100030BC70473C7B002030B4094C029A256850
:10B420004DB10446084619462C2303FB0454A36877
:10B430000BB130BC18474FF0FF3030BC704700BF35
:10B440003C7B002030B4094C029A25684DB104467B
:10B45000084619462C2303FB0454E3680BB130BCA7
:10B4600018474FF0FF3030BC704700BF3C7B0020D6
:10B47000044B1B682BB12C2202FB0030036903B183
:10B48000184770473C7B0020054B1B682BB12C22D2
:10B4900002FB0030836903B118470120704700BFE9
:10B4A0003C7B002003F07ABE00B5154B83B04022F0
:10B4B00083F82723002001F0DFFF4FF080429DF842
:10B4C0000030D2F838446FF3000368468DF800303E
:10B4D00015F016F90B4B019301A815F059F915F069
:10B4E00063F9E30707D400214FF0FF3002F050F872
:10B4F000FFF7F4FAF7E7002003F050FEF3E700BF90
:10B5000000E100E0A5B40200002003F0B9BA00BFDA
:10B5100000B5002383B00322CDE90023034904488A
:10B52000C82213F0B1FD03B05DF804FB506E0400B7
:10B53000A9B4020015F006BF4FF08052536E1BBA3B
:10B540000360136E1BBA43600820704700487047C1
:10B55000586E040070B51E4D2B6883B1012913D1BC
:10B560001478C4F34114012C0BD0022C07D1547869
:10B57000012C0BD0022C07D19388072B20D0002060
:10B5800070BD517822290BD0012070BDDC69002CE0
:10B59000F5D0237811462246BDE8704002F00EBE79
:10B5A0005188003918BF01211976114602F0ECFDCF
:10B5B0002A68136A002BE7D0107E9847204670BD9A
:10B5C000044C114623892246BDE8704002F0F6BDC6
:10B5D000407B00206C61002010B5044601F034FF70
:10B5E00008B9002010BD01F037FF0028F9D1044848
:10B5F0004FF4567303FB0400007900F0010010BD06
:10B60000447B0020054B4FF4567202FB00339868D0
:10B6100008609A899B7B8B718A807047447B0020ED
:10B6200008B5044B4FF4567202FB0030103001F0A5
:10B63000FDFC08BD447B00202DE9F0414FF4567518
:10B6400005FB00F51C4F4FF6FF734FF6FE7005F13A
:10B650001004824288BF1A463C4492B2204601F050
:10B6600011FD0646204601F0FBFC3F2802D830467B
:10B67000BDE8F08107EB0508002098F8031002F000
:10B68000F3FC0028F3D0204601F0EAFC3F280BD958
:10B6900005F5367298F803103A444023002002F072
:10B6A00003FD3046BDE8F08198F80310002002F059
:10B6B000EBFC3046BDE8F081447B0020034B4FF4A7
:10B6C000567202FB0030103001F04ABD447B00206E
:10B6D0002DE9F041044601F0B7FE10B90020BDE8A5
:10B6E000F08101F0B9FE06460028F7D14FF45671FB
:10B6F000DFF8608001FB04F404F12405454428468A
:10B7000001F094FC0028E9D008EB04073046B97832
:10B7100002F0AAFC0028E1D004F54674444428460F
:10B720002146402201F0AEFC054660B1B9782246C0
:10B7300030462B4602F0B8FC40B9054B1B68DB07CE
:10B74000CCD500BECBE7B97802F09EFC2846C6E710
:10B75000F0ED00E0447B002038B5104B4FF45674F8
:10B7600004FB003405464FF6FF734FF6FE7082422D
:10B7700088BF1A46243492B2204601F02BFD0346BE
:10B7800020461C4601F052FC3F2801D8204638BD17
:10B790002846FFF79DFF204638BD00BF447B0020B0
:10B7A00008B5044B4FF4567202FB0030243001F010
:10B7B00057FC08BD447B0020F0B51B4C83B0002132
:10B7C0004FF4567220460D46012616F05DFEFF230B
:10B7D0004FF4E13204F138016371A2603346082767
:10B7E000009504F110004FF48072A773A58101F059
:10B7F000E5FB33464FF4807204F59C7104F124009C
:10B80000009601F0DBFB04F50E71304612F0D6FE17
:10B8100004F5227103463046C4E9075312F0CEFE08
:10B82000C4E90C0503B0F0BD447B002010B5094B02
:10B83000002203F1240403F110001A601A7101F0D0
:10B840006BFD204601F068FD20460121BDE8104057
:10B8500001F082BD447B00202DE9F0414B79022BA1
:10B8600082B002D18B79022B04D00025284602B089
:10B87000BDE8F081314FBB782BB1314B1B68DB0742
:10B88000F3D500BEF1E78B783B700C780C4406468C
:10B89000617824294FF009050BD1082A02D80FE05E
:10B8A000AA420DD323781C442B44617824299DB2ED
:10B8B000F6D005291BD0042902D163790A2B28D0A0
:10B8C000204801F0CDFB3F28D0D9F978002002F0C4
:10B8D000CBFB0028CAD01B4801F0C2FB3F28F978F7
:10B8E00013D9194A4023002002F0DEFBBEE72146AF
:10B8F000304602F095FB0028BFD0A3787B702378F8
:10B900001C442B4461789DB2D5E7002002F0BCFBBB
:10B91000ACE70E4A94F800800192022301320092B3
:10B92000304604EB08011A4602F0FAFA0028A4D0C7
:10B9300005F10E0318FA83F39DB2C1E7447B0020A2
:10B94000F0ED00E0547B00201C7E0020467B0020B0
:10B9500038B5137803F06003202B0CD1274C938863
:10B9600025789D4207D15378203B032B03D8DFE88D
:10B9700003F00A172004002038BD012930D0032924
:10B9800033D0012038BD01290CD00329F9D11C4B3B
:10B99000002BF6D01B490020AFF30080012038BDFA
:10B9A0000129EED111460723164A02F007FC0120B7
:10B9B00038BD012914D00329E3D15588257105F03C
:10B9C0000104114884F0010101F0C6FC0F4B002B6B
:10B9D000D7D0C5F3400221460020FFF747FAD0E751
:10B9E000114602F0D1FB012038BD094B002BC8D015
:10B9F00051880020AFF30080012038BD447B002037
:10BA0000000000004C7B0020687B00206DAE02002F
:10BA1000000000002DE9F047574DEA788A420C46B5
:10BA200007461E465CD19AB205F5367105F1100045
:10BA300001F0D0FB514BD3B16B79FF2B17D0B6B1CE
:10BA400005F2D72808EB060AA8F2C72902E0D0457C
:10BA50000DD06B7918F8012F9A42F8D1484601F0C1
:10BA6000F5FA0028F3D16979AFF30080EFE7444B92
:10BA700023B1444801F0EAFA002870D0414801F0AF
:10BA8000EFFA3F2805D9E978002002F0EDFA002806
:10BA900058D1AB789C4203D001242046BDE8F08702
:10BAA000394B13B10020AFF3008001F0CDFC20BB77
:10BAB000364801F0BBFA0028EED1002EECD016F08B
:10BAC0003F06E9D1A978384602F0CEFA04460028AC
:10BAD000E2D0A97838463346324602F0E5FADCE790
:10BAE000AB788B42DCD02A4B1C6814F00104D4D014
:10BAF00000BE00242046BDE8F08701F0ADFC0446FE
:10BB00000028D5D1214801F091FA0028D0D0A97899
:10BB1000204602F0A9FA0028CAD01E494022A1F509
:10BB20003D7001F0AFFA034608B31A4AA9782046DF
:10BB300002F0BAFA0028AFD1154B1B68DB07B7D566
:10BB400000BEB5E70F4801F08BFA3F280AD9402321
:10BB5000114AE978002002F0A7FAAB789AE7AFF330
:10BB600000808BE7E978002002F08EFA91E7A9784F
:10BB700002F08AFA9CE700BF447B0020000000002E
:10BB800000000000547B002000000000687B0020C3
:10BB9000F0ED00E05C7E00201C7E002002484FF4A7
:10BBA0008C72002116F070BC9C7E002002484FF47D
:10BBB0008C72002116F068BC9C7E00202DE9F047B5
:10BBC0004B79032B82B014D10B79C3EBC30512352B
:10BBD000ADB295420C4607D8314F7A7806466AB125
:10BBE00097F88D20002A51D02E4B1B68DA0700D51C
:10BBF00000BE0025284602B0BDE8F0879046924678
:10BC00004FF0010E4FF0020C2278A118487821283D
:10BC1000EAD14FF08C0909FB0A7907EB0E00C9F84D
:10BC2000881014F802E0019007EB0C0200927144B6
:10BC30001A463046032302F073F90028D4D0A379C2
:10BC4000012B04BFE37989F803308C2303FB0AFA44
:10BC500007EB0A0301221A71A27807F80A20D3F829
:10BC600088209978B2F80720DA800029C2D008F13C
:10BC700048023A443046402302F016FA0028B9D16F
:10BC8000084B1B68DB07B5D500BEB3E74FF08D0E40
:10BC90004FF08E0C4FF08C084FF0010AB4E700BF54
:10BCA0009C7E0020F0ED00E0137803F01F0CBCF147
:10BCB000010F14D12DE9F0430C46864997881546AB
:10BCC0000A78FFB2BA4283B006460AD091F88C20B7
:10BCD000BA4200F0CF80002003B0BDE8F08300201E
:10BCE00070470027BC46042208204FF0480E4FF052
:10BCF000050813F0600306D1012C00F0A18001209B
:10BD000003B0BDE8F083202BE5D16B78013B0A2B13
:10BD1000E1D80FF2080959F823F000BFF3BD020083
:10BD2000E9BD0200D5BD0200D7BC0200D7BC0200AD
:10BD3000D7BC0200D7BC0200D7BC020095BD0200F0
:10BD40006BBD020049BD0200012C1DD0032CD6D1D1
:10BD50006B88614A8C2000FB0717D9B23971002A21
:10BD6000CDD06046AFF30080C9E7012CC7D16B8806
:10BD70005A488C2202FB0712190A517120B1604601
:10BD8000AFF300800028A6D02946304602F0FCF927
:10BD90000120A1E7012C00F08580032CAFD1688839
:10BDA000ED88402D01EB0E032C4628BF402410F0F7
:10BDB000FF014FEA102207D0012D05D918788842DB
:10BDC00002D1013CA4B2013360460094FFF760FA4F
:10BDD000012081E7012C92D10A44294630462346AE
:10BDE00002F0ECF9204677E7012C88D101EB08023C
:10BDF000F3E7012C83D1B5F806E06B880F18704685
:10BE0000402828BF402013F0FF014FEA13223B4691
:10BE10005BD0BEF1010F5AD9013803F8011B80B283
:10BE200000906046FFF71EFA23189BB2002B45D105
:10BE30002B4A1268D2077FF54EAF00BE18464BE77B
:10BE40006B78062B7FF447AF6B881B0A212B19D028
:10BE5000222B7FF440AF6046FFF7FCF91D498C238D
:10BE600003FB07170246FB882946304602F0A6F975
:10BE7000204631E7902294204FF0D40E4FF09108E5
:10BE8000674636E78C2303FB0713D3F88820002A84
:10BE90003FF421AF13782946304603B0BDE8F043A4
:10BEA00002F08CB9EB88402B3FF615AF01EB0E0288
:10BEB0003046294602F082F920460DE73A462946E7
:10BEC000304602F07BF9012006E70C46A8E7002483
:10BED000A6E700BF9C7E00200000000000000000DC
:10BEE000F0ED00E070B5234CA2788A4282B062780F
:10BEF000054612D08A4226D094F88E208A4294F8C1
:10BF00008D2030D08A4231D01B4B1B68DA0702D417
:10BF1000002002B070BD00BEFAE70020914213D0AD
:10BF200000229BB204F14806114600933346FFF706
:10BF3000AFF9A17832462846402302F0B5F860B147
:10BF4000012002B070BD00200C4A002AF8D09AB23D
:10BF500004F10801AFF30080F2E7074B1B68DB0731
:10BF6000D6D500BED5E78C340120D7E78C3401202C
:10BF7000EAE700BF9C7E0020F0ED00E0000000003A
:10BF800070B500F124050446284601F04FF808B9C1
:10BF9000002070BD6178002002F066F80028F7D01C
:10BFA00004F5067628463146402201F06BF8054636
:10BFB00060B1034661783246002002F075F840B95E
:10BFC000054B1B68DB07E3D500BE70BD617802F04E
:10BFD0005BF8284670BD00BFF0ED00E030B5164CB0
:10BFE00083B000210D464FF41672204616F04CFA2D
:10BFF00004F1380104F1100000950123802200F0C3
:10C00000DDFF802204F1B8010123009504F1240032
:10C0100000F0D4FF04F59C71012012F0CFFA04F572
:10C02000C47103460120C4E9075312F0C7FAC4E9FA
:10C030000C0503B030BD00BF9CA6002010B5084C15
:10C04000002304F11000C4E90033C4E9023301F015
:10C0500063F904F12400BDE8104001F05DB900BFB0
:10C060009CA600202DE9F0434B79012B83B002D12F
:10C070008B79012B04D00025284603B0BDE8F0835E
:10C08000CB79002BF7D10B78CC1806466578242D98
:10C0900099B20BD1914202D9EDE78A42EBD32378D2
:10C0A0001C440B446578242D99B2F6D0042DE2D1BE
:10C0B0006379012BDFD1A379032BDCD1E579002D46
:10C0C000D9D1DFF8CC8098F8010098F8023050EA16
:10C0D000030905D02B4B1B68DB07CCD500BECBE793
:10C0E000A37888F8003027782079CB199DB22744AF
:10C0F00030B922E03B7881451D44ADB21F441CD2CB
:10C10000AA421AD37B78052BF4D1394630460192E6
:10C1100001F086FF019A68B3BB782079D90914BF72
:10C1200088F8013088F80230397809F101030D44AC
:10C130005FFA83F9ADB20F44DCE7134800F090FFDB
:10C140003F2899D998F80210002001F08DFF0028AF
:10C1500092D00D4800F084FF3F2898F8021005D9CE
:10C160000A4A4023002001F09FFF85E7002001F0EC
:10C170008BFF81E7034B1B68DA077FF57CAF00BEBE
:10C18000054679E7F0ED00E0ACA6002074A8002099
:10C190009CA6002000207047F8B52D4DAA788A4251
:10C1A0001E4619D19AB205F5EC7105F1100001F0A7
:10C1B00011F8284B13B10020AFF30080264800F09F
:10C1C0004FFF3F2805D9A978002001F04DFF044614
:10C1D00068BB01242046F8BD6B788B4208D01F4B0A
:10C1E0001C6814F00104F5D000BE00242046F8BD00
:10C1F00007462846FFF7C4FE0028EAD105F12400CF
:10C2000000F014FF0028E4D1002EE2D016F03F0623
:10C21000DFD16978384601F027FF04460028D8D0DE
:10C22000697838463346324601F03EFFD2E70A4885
:10C2300000F016FF3F28A97805D9094A40230020BD
:10C2400001F032FFC6E7002001F01EFFC2E700BF89
:10C250009CA6002000000000ACA60020F0ED00E04D
:10C2600074A8002070B5324CE28AA36852BA92B228
:10C2700086B0054612B1B3FBF2F292B2A06BD4F8CD
:10C280001110B0FBF2F61B1AB3F5007F28BF4FF474
:10C29000007309BA009302FB16023144254B607B00
:10C2A000FFF7BAF8011E1EDB0AD08BB2214A94F8C0
:10C2B0002E10284601F0F8FE002833D006B070BDDD
:10C2C00094F82E300391072203A8CDE904118DF8CC
:10C2D0000C508DF80D208DF810308DF8111001F0F4
:10C2E00061FD06B070BDA268A36B43F60220002179
:10C2F000D31AA08784F83E1001200221A36284F89B
:10C300002C0084F83010002AD8D0002BD6D0237B04
:10C31000DB0914BF94F82E1094F82F10284601F072
:10C3200003FFCBE7044B1B68DB07C7D500BEC5E79F
:10C33000B4810020B47F0020F0ED00E038B5214B3F
:10C34000214C05461BB1607BFFF79EF8B0B1A06B96
:10C35000A36894F82F101D4A1B1AB3F5007F28BF5D
:10C360004FF4007328469BB201F09EFE00B138BD29
:10C37000174B1B68DB07FAD500BE38BDA26BA1685E
:10C3800084F83E008B1A42F207720120A287022233
:10C39000A36284F82C0084F830200029E7D0002B19
:10C3A000E5D0237BDB0906D094F82E102846BDE8A3
:10C3B000384001F0B9BE94F82F102846BDE8384047
:10C3C00001F0B2BE89B40200B4810020B47F002025
:10C3D000F0ED00E0044880F83C1080F83D2080F843
:10C3E0003E300120704700BFB48100200248402247
:10C3F000002116F049B800BFB48100200248402255
:10C40000002116F041B800BFB48100204B79082B01
:10C4100001D0002070478B79062BFAD1CB79502BB5
:10C42000F7D1162A06D81C4B1B68D907F1D500BED8
:10C430000020704770B5194D8B7885F82D300B783A
:10C4400082B005F12F0205F12E0619440223CDE931
:10C4500000261A46044601F063FD30B90E4A126800
:10C46000D2070FD500BE02B070BD204695F82F1040
:10C4700000241F232A4685F8304001F015FE20B124
:10C480001720F0E7002002B070BD034B1B68DB07EC
:10C49000F6D500BE1720E6E7F0ED00E0B4810020FD
:10C4A000012901D00120704770B5137803F07F0493
:10C4B000022C84B0054611D003F06003202B0AD172
:10C4C0005378FE2B28D0FF2B05D153881BB9D68873
:10C4D000B3B2002B3CD0002004B070BD5478012CC6
:10C4E000EAD15388002BF6D1374E938896F8302046
:10C4F000042ADBB250D096F82E10994236D096F826
:10C500002F409C4205D122B9214601F0FFFD0028B1
:10C5100047D0012004B070BD5388002BDBD1D388F5
:10C52000012BD8D129488DF80F3030B10192FEF798
:10C53000C5FE019A01460028CDD04C1E2846114662
:10C5400001230DF10F028DF80F4001F037FEE0E7F7
:10C550001D4C11462846A687C4E90D3384F83030B7
:10C5600084F83E3001F010FE0120B5E7022AD0D158
:10C57000B26BB3689B1A0324B36206F120020D2349
:10C5800086F8304001F090FD0028C2D1104B1B68A6
:10C59000DB07A0D500BE9FE7194601F0C5FD204688
:10C5A0009AE72146284601F0DFFD0028B1D100239B
:10C5B00086F8303096F82F10034A28461F2301F0E2
:10C5C00073FD0028A5D1E1E7B4810020BDB20200CF
:10C5D000F0ED00E02DE9F041AC4C94F83050012D25
:10C5E0008EB01E46074670D0032D47D035B1022DC0
:10C5F00000F08A8001200EB0BDE8F08194F82F3061
:10C600008B42F7D11F2E40F09E80A14B22689A42A8
:10C6100040F09980E27B9F4863682062636201205A
:10C62000A368A562282A84F82C50A56384F83000FA
:10C63000636300F0E3802A2A00F0C282002B00F03E
:10C640003381207BC00940F02F81B3F5007F40F299
:10C650001D8394F83C20A3620120022384F82C005F
:10C6600084F8303022B942F2050384F83E20A387D3
:10C67000384601F059FD94F83050B8E794F82E3060
:10C680008B42B7D10D2EB5D1E37B282B00F09082E1
:10C690002A2B00F08582804B23B1607B04F10F01CF
:10C6A000AFF30080002084F83000784A94F82F100F
:10C6B0001F23384601F0F8FC0028DCD1774B1B68BB
:10C6C000DA0700F19980002095E7E37B282B12D050
:10C6D0002A2B59D0A36B227B3344D209A36347D0C2
:10C6E000626B9A420DD96D4B1B68DB07C3D500BE48
:10C6F00094F830507BE7D4E90D2333449342A3638D
:10C7000075D3022384F8303094F82E10384601F0A7
:10C710002BFD00287FF46EAFA368A26B934202D971
:10C72000217BC9091ED19B1A0325A36294F82E1000
:10C730005B4A84F8305038460D2301F0B5FC0028E0
:10C740007FF458AFBAE7042394F82E1084F8303001
:10C75000384601F0E9FC384694F82F1001F0E4FC6B
:10C76000002048E794F82E10384601F0DDFC41E740
:10C77000A38E4C4A607B04F10F01FEF72FFE0028C8
:10C78000C0F2EC81A36BABE7E08A40BA80B218B18B
:10C79000A368B3FBF0F080B2D4F81110A26B414D46
:10C7A000B2FBF0F309BA00FB13221944607B009638
:10C7B0002B46FEF747FE0028C0F2308286425CD945
:10C7C000361A002840F05882002194F82F20059155
:10C7D000072305A8CDE906168DF814708DF81910F9
:10C7E0008DF818208DF8153001F0DCFA43E7FFF7DB
:10C7F00039FD94F83050FAE600BEFCE6E08A40BA13
:10C8000080B2A3B900283FF47CAF94F83C300222F8
:10C81000002184F82C2084F83020A162002B7FF4C2
:10C8200073AF42F2050284F83E30A2876CE7257BA5
:10C83000ED090BD0002800F00A828342C0F0498243
:10C84000282A3846D3D0FFF779FD14E794F83C2026
:10C85000A362022384F82C3084F83030002A7FF45D
:10C8600007AF42F205020023A28784F83E30257B01
:10C87000ED09002D3FF4FCAEB7E1D4E90D233344BC
:10C880009342A363BFF43DAF3846DCE7B481002098
:10C89000555342435553425300000000F0ED00E071
:10C8A000D4810020B47F0020657B252A27D8DFE8CB
:10C8B00012F04F0126002600110126002600260056
:10C8C0002600260026002600260026002600260038
:10C8D000260026002600C20026002600260026008C
:10C8E000260026002600A800E200260026002600DA
:10C8F000260026002600260082002600550094F817
:10C900003C20002A40F0D080BC4ABD499BB228465A
:10C91000FEF764FD0028C0F2C780002833D1A36869
:10C92000002B3FF4EEAEA16B94F83C205B1A012083
:10C930000221A36284F82C0084F8301022B942F25C
:10C94000050184F83E20A187002B3FF4DDAE237B58
:10C95000DB0940F04A8194F82F1089E6284604AAA2
:10C9600005A9FEF729FD059B002B00F0A781BDF866
:10C970001020002A00F0A281A049013B1BBA12BA84
:10C98000C1E900320820A368002B40F08881A36B26
:10C9900094F83C205B4201200221A36284F82C0021
:10C9A00084F83010002A7FF4AFAE42F2050384F819
:10C9B0003E20A387A8E605AE00230DF10E0228460F
:10C9C00004A973600593B360FEF7F6FC049A002A8D
:10C9D00000F07481BDF80E30002B00F06F8112BAA8
:10C9E0005BBA08200221ADF81E3006928DF81700C0
:10C9F0008DF81C1096E80700804B83E807000C2098
:10CA0000C1E7059B7F4A03F4000343F0030305934A
:10CA1000002A00F06C812846FEF736FD9DF816309E
:10CA2000764A80F0010060F3C7138DF81630059B3D
:10CA300013600420A7E74FF02033284600221F256B
:10CA40000692CDE90A33704E089307A909AA079305
:10CA500009930D930C938DF818500DAB05AD059609
:10CA6000FEF734FC0FCD654E0FC60FCD0FC62B68F9
:10CA70003360242087E7654B002B3FF450AFE17C07
:10CA80002846C1F3400301F001020909FEF7B0FC9A
:10CA900000287FF444AF94F83C302BB943F60222CF
:10CAA0000023A28784F83E30A268A36B94F83C1060
:10CAB0000120D31A84F82C000220A36284F83000ED
:10CAC00021B942F2050084F83E10A087002A3FF405
:10CAD0001BAE39E794F83C2094F83D0094F83E10E2
